:020000040000fa
:080000000001040000000000f3
:020000040000fa
:0400080008020000ea
:020000040000fa
:04000c004a020000a4
:020000040000fa
:040010008a02000060
:020000040000fa
:0400140028020000be
:020000040000fa
:040018006a02000078
:020000040000fa
:04001c00f6020000e8
:020000040000fa
:04002000aa02000030
:020000040000fa
:04002400f6020000e0
:020000040000fa
:04002800f6020000dc
:020000040000fa
:04002c00f6020000d8
:020000040000fa
:04003000f6020000d4
:020000040000fa
:04003400f6020000d0
:020000040000fa
:04003800f6020000cc
:020000040000fa
:04003c00f6020000c8
:020000040000fa
:04004000f6020000c4
:020000040000fa
:04004400f6020000c0
:020000040000fa
:04004800f6020000bc
:020000040000fa
:04004c00f6020000b8
:020000040000fa
:04005000f6020000b4
:020000040000fa
:04005400f6020000b0
:020000040000fa
:04005800f6020000ac
:020000040000fa
:04005c00f6020000a8
:020000040000fa
:04006000f6020000a4
:020000040000fa
:04006400f6020000a0
:020000040000fa
:04006800f60200009c
:020000040000fa
:04006c00f602000098
:020000040000fa
:04007000f602000094
:020000040000fa
:04007400f602000090
:020000040000fa
:04007800f60200008c
:020000040000fa
:04007c00f602000088
:020000040000fa
:04008000f602000084
:020000040000fa
:04008400f602000080
:020000040000fa
:04008800f60200007c
:020000040000fa
:04008c00f602000078
:020000040000fa
:04009000f602000074
:020000040000fa
:04009400f602000070
:020000040000fa
:04009800f60200006c
:020000040000fa
:04009c00f602000068
:020000040000fa
:0400a000f602000064
:020000040000fa
:0400a400f602000060
:020000040000fa
:0400a800f60200005c
:020000040000fa
:0400ac00f602000058
:020000040000fa
:0400b000f602000054
:020000040000fa
:0400b400f602000050
:020000040000fa
:0400b800f60200004c
:020000040000fa
:0400bc00f602000048
:020000040000fa
:0400c000f602000044
:020000040000fa
:0400c400f602000040
:020000040000fa
:0400c800f60200003c
:020000040000fa
:0400cc00f602000038
:020000040000fa
:0400d000f602000034
:020000040000fa
:0400d400f602000030
:020000040000fa
:0400d800f60200002c
:020000040000fa
:0400dc00f602000028
:020000040000fa
:0400e000f602000024
:020000040000fa
:0400e400f602000020
:020000040000fa
:0400e800f60200001c
:020000040000fa
:0400ec00f602000018
:020000040000fa
:0400f000f602000014
:020000040000fa
:0400f400f602000010
:020000040000fa
:0400f800f60200000c
:020000040000fa
:0400fc00f602000008
:020000040000fa
:04010000f602000003
:020000040000fa
:04010400f6020000ff
:020000040000fa
:04010800f6020000fb
:020000040000fa
:04010c00f6020000f7
:020000040000fa
:04011000f6020000f3
:020000040000fa
:04011400f6020000ef
:020000040000fa
:04011800f6020000eb
:020000040000fa
:04011c00f6020000e7
:020000040000fa
:04012000f6020000e3
:020000040000fa
:04012400f6020000df
:020000040000fa
:04012800f6020000db
:020000040000fa
:04012c00f6020000d7
:020000040000fa
:04013000f6020000d3
:020000040000fa
:04013400f6020000cf
:020000040000fa
:04013800f6020000cb
:020000040000fa
:04013c00f6020000c7
:020000040000fa
:04014000f6020000c3
:020000040000fa
:04014400f6020000bf
:020000040000fa
:04014800f6020000bb
:020000040000fa
:04014c00f6020000b7
:020000040000fa
:04015000f6020000b3
:020000040000fa
:04015400f6020000af
:020000040000fa
:04015800f6020000ab
:020000040000fa
:04015c00f6020000a7
:020000040000fa
:04016000f6020000a3
:020000040000fa
:04016400f60200009f
:020000040000fa
:04016800f60200009b
:020000040000fa
:04016c00f602000097
:020000040000fa
:04017000f602000093
:020000040000fa
:04017400f60200008f
:020000040000fa
:04017800f60200008b
:020000040000fa
:04017c00f602000087
:020000040000fa
:04018000ca020000af
:020000040000fa
:04018400f60200007f
:020000040000fa
:04018800f60200007b
:020000040000fa
:04018c00f602000077
:020000040000fa
:04019000f602000073
:020000040000fa
:04019400f60200006f
:020000040000fa
:04019800f60200006b
:020000040000fa
:04019c00f602000067
:020000040000fa
:0401a000f602000063
:020000040000fa
:0401a400f60200005f
:020000040000fa
:0401a800f60200005b
:020000040000fa
:0401ac00f602000057
:020000040000fa
:0401b000f602000053
:020000040000fa
:0401b400f60200004f
:020000040000fa
:0401b800f60200004b
:020000040000fa
:0401bc00f602000047
:020000040000fa
:0401c000f602000043
:020000040000fa
:0401c400f60200003f
:020000040000fa
:0401c800f60200003b
:020000040000fa
:0401cc00f602000037
:020000040000fa
:0401d000f602000033
:020000040000fa
:0401d400f60200002f
:020000040000fa
:0401d800f60200002b
:020000040000fa
:0401dc00f602000027
:020000040000fa
:0401e000f602000023
:020000040000fa
:0401e400f60200001f
:020000040000fa
:0401e800f60200001b
:020000040000fa
:0401ec00f602000017
:020000040000fa
:0401f000f602000013
:020000040000fa
:0401f400f60200000f
:020000040000fa
:0401f800f60200000b
:020000040000fa
:0401fc00f602000007
:020000040000fa
:100200000fa320000e7f22000e01880000000000d6
:10021000000020000000e000020032000001200089
:100220002002880014000700f20007000000e00030
:1002300003003a0060f621000100200002003700b0
:100240000000200001002000810f7000010032003a
:1002500014000700000020000000e000020032004f
:100260000000020000000000e81f02000000000083
:100270000040da000000fe004440a900000b20000e
:100280000000e00003003200002020009001880000
:100290004440a800000006008a1f78008b1f7800e9
:1002a00000000600a1028800800478000000eb0036
:1002b0001f003700e284440054a0b4009905ba003e
:1002c000e284440054a0b4009906ba00e2844400d9
:1002d00054a0b4000006eb00476fde00fd07b2003b
:1002e000ae018800636ce10003003a00eaff0700fa
:1002f0000000eb000e003700606ce10008003a00df
:10030000004deb000a05e800020039003420ec0043
:100310000af0a0008b05e900f9ff3e000400370059
:100320006168e100010032000086eb000b0007006d
:1003300019c7ba001905ba000e04e00003003a001c
:100340000a00e000dbff3a0000000600fe07b200f2
:10035000ae0288008a047800f5ff37000cd0a300b5
:10036000e20f4d001c00390089027800354dba00bb
:100370000a05e800020039003420ec000af0a00071
:100380008b05e9000f003200254dba000a05e80090
:10039000020039003420ec000af0a0008b05e900cf
:1003a000080032000c00e0000600320015cdba0053
:1003b0000a05e800020039003420ec000af0a00031
:1003c0008b05e9008984e80054a0b4000b00e0002c
:1003d000e2ff3a00000006009902ba00055d7800cd
:1003e0008b05e900f7ff3200c82ade00055d7800c2
:1003f0008b05e900f3ff32000c00e000f1ff320052
:1004000019ddba00eeff3700000000000000000018
:100410003600f800809fbe00829fbe00849fbe0011
:10042000869fbe000000fa008020a9000000eb00bb
:10043000c90e07000080fa004f03be004f02be0045
:100440004f01be004f00be003600f900004006001c
:100450003600f800809fbe00829fbe00849fbe00d1
:10046000869fbe000000fa00c00e07008040a90071
:1004700010002000b80e07000080fa004f03be00f5
:100480004f02be004f01be004f00be003600f90013
:10049000004006003600f800809fbe00829fbe002c
:1004a000849fbe00869fbe000000fa008060a90005
:1004b00020002000a80e07000080fa004f03be00b5
:1004c0004f02be004f01be004f00be003600f900d3
:1004d000004006003600f800809fbe00829fbe00ec
:1004e000849fbe00869fbe000000fa008080a900a5
:1004f00030002000980e07000080fa004f03be0075
:100500004f02be004f01be004f00be003600f90092
:10051000004006003600f800809fbe00829fbe00ab
:10052000849fbe00869fbe000000fa008600a900de
:1005300070002000880e07000080fa004f03be0004
:100540004f02be004f01be004f00be003600f90052
:10055000004006003600f800809fbe00829fbe006b
:10056000849fbe00869fbe000000fa0085e0a900bf
:1005700080002000780e07000080fa004f03be00c4
:100580004f02be004f01be004f00be003600f90012
:10059000004006003600f800809fbe00829fbe002b
:1005a000849fbe00869fbe003200f8003400f80031
:1005b00010002000a0018800002020009001880089
:1005c0000000fa004f0107000080fa003400f90033
:1005d0003200f9004f03be004f02be004f01be00c3
:1005e0004f00be003600f900004006000040da006f
:1005f0000000fe00000005008001780002003700c6
:10060000b15978000201e9000200e000fcff3a0065
:1006100000000600889fbe008a9fbe00800478000c
:100620000200e0005a00320001407800814c78005e
:1006300082814400f1f99f00e20f5100540036001e
:1006400091449800a1449800e1f99f00d1f99f00de
:10065000e60f51004e003600b1449800c1f99f00ea
:10066000e80f51004a0036000905ea0063056500fd
:100670000a8444000a055100c1ff2f0001056500ee
:100680000080fb008000eb001210200013102000ff
:1006900043000700008cbe000a01440060b99f00bf
:1006a00071b99f00e80f550039003600200498000a
:1006b00031049800400498005104980020b99f002c
:1006c00031b99f0040b99f0051b99f00f80f550004
:1006d0002f0036006004980071049800000c980008
:1006e000110c9800200c9800310c9800400c9800d8
:1006f000510c980020b19f0031b19f0040b19f0084
:1007000051b19f0060b19f0071b19f0000b99f007f
:1007100011b99f00640164007801410002044400a3
:10072000020555006011b8000203be000002be00c1
:100730000403be006022b8000000720081807200d5
:1007400002017300838173000f00370008027800f4
:10075000009abe00029abe00009abe000292be003d
:10076000000c9800110c9800220c9800330c980093
:10077000400c9800510c9800620c9800730c980083
:100780000a02b1000802b000ff0f5500efff3e0063
:10079000090078004f05be004f04be0000000600af
:1007a000020ab900001bb9000200b8008100420033
:0807b000810043000000060077
:020000040000fa
:1007b8001201000000020000020000000008000012
:1007c800d80400000a000000000100000102000037
:1007d80000010000090200004300000002010000bf
:1007e80000c0000032090000040000000001000001
:1007f80002020000010000000524000000100000b3
:100808000104000024020000020500002406000084
:10081800000100000524000001000000010700009d
:1008280005810000030a000000020000090400001e
:1008380001000000020a000000000000000700009c
:10084800050200000240000000000000070500004b
:1008580082020000400000000000000004030000c5
:1008680009040000340300004d0000006900000086
:1008780063000000720000006f00000063000000c9
:1008880068000000690000007000000020000000ff
:1008980054000000650000006300000068000000cc
:1008a8006e0000006f0000006c0000006f00000088
:1008b80067000000790000002000000049000000e7
:1008c8006e000000630000002e0000001a03000004
:1008d80050000000720000006f000000640000007b
:1008e8007500000063000000740000002000000094
:1008f8004e000000610000006d000000650000006f
:10090800ee83000032840000368400006a84000010
:020000040000fa
:100918000200fa00a2c0a90076c6a8000080eb0079
:10092800703088000080eb00503088002a26ef00e5
:10093800420020008000eb00c062200033ff070067
:1009480020002000303188002826ef000646a90044
:10095800f009200080308800f0092000603088000d
:1009680002c6a8000806a80000a020004800de0073
:10097800c03088000040eb00004f780007003700c7
:100988001e80fb00c200dd0000a0200000814000a6
:100998006000b8000089be001e4fe8001e407800c5
:1009a800eb4f5000f6ff36001426a8001626ef007d
:1009b80014a6a9001426a900800020005030880041
:1009c800809620008040eb0001487800e0962000e7
:1009d8008040eb0001487800f096200090407800b5
:1009e800e0c060000148780000972000904078003f
:1009f800e0c0600001487800503080006800600066
:100a08000000e000ecff3a0010c0b30013e8b700a4
:100a180010c0b30014e8b7001568ef001668ef00bf
:100a28000d68ef000040eb00004f7800170037001a
:100a38001e80fb00800040000096200000804000df
:100a48008000eb00010878001e80fb008000400059
:100a5800a0952000008040008000eb00010878008d
:100a68001e80fb00329720008040eb000000410010
:100a7800014878001e80fb00629720008040eb0050
:100a880000004100014878001e4fe8001e40780031
:100a9800e24f5000e6ff360080a02000004b88009f
:100aa800d000200050318800909720001050880016
:100ab80000a0200081c0b3000148780010a02000e9
:100ac80041c0b3000148780010a020001040780011
:100ad800804078000174a00010a020000148780030
:100ae8000268ef001828ef001a28ef001c68ef00d2
:100af8000028ef000080fa00000006000200fa005b
:100b080000408000e10f50000b003a00a130800047
:100b180000042000008060000000e00006003a00a9
:100b28000080eb00503088000c06a8000c86a80056
:100b38002000200000408800003080007000600025
:100b48000000e000070032001030800070006000f4
:100b58000000e0000300320000012000003088009f
:100b68003805070040308000620060000000e000a7
:100b78000200320092c0a900a10037005030800066
:100b8800610060000000e0000a0032006030800070
:100b9800610060000000e000060032005cff070012
:100ba800a2c0a800400020000040880010002000db
:100bb8005030880050308000700060000000e00075
:100bc8000500320060308000700060000000e00026
:100bd800010032000e0507000130800000042000eb
:100be800008060000000e0000300320000042000e4
:100bf800003088009d0707005030800064006000c6
:100c08000000e000140032006030800064006000e2
:100c18000000e00004003200120020008000eb0019
:100c280030072000520c0700400020005030880098
:100c380011c8bf000004e0000300320011c8bf0063
:100c48000040e90011e8b70011c8bf000004e00047
:100c580001003a00da010700513080000008200046
:100c6800008060000000e000060032006130800073
:100c780000082000008060000000e0000100320051
:100c8800c104070050308000620060000000e000ee
:100c98000c00320060308000620060000000e0005c
:100ca80008003200120020008000eb00f0ff27004f
:100cb8002f0c07000080eb00703088002000200017
:100cc8005030880000408000e30f500002003e00d2
:100cd80092c0a9004a0037006030800068006000b8
:100ce8000000e000450032000040eb00004f7800b3
:100cf8003d00370050308000680060000000e000d0
:100d08003d00320090308000004078000ee8b700c7
:100d18000ec8bf000080fb004400de0000407800e1
:100d28000fe8b70080002000503088000ec8bf00d0
:100d3800684060000004e00011003a000fc8bf00de
:100d48000081fb008080fb0060972000008040004d
:100d58009040780061c060000004a200e14060009b
:100d68006097200000004100e1c060001041780059
:100d78000204a1008140710001487800100037008a
:100d88000fc8bf000081fb008080fb003097200067
:100d9800008040009040780061c060000004a2001c
:100da800e14060003097200000004100e1c0600091
:100db800104178000204a1008140710001487800c8
:100dc8000fc8bf000004e00002003a00a9040700b1
:100dd800040037000001eb00e1802000200720001c
:100de800e30b07001e4fe8001e407800e34f500059
:100df800c0ff3600010037000000000092c0a900c3
:100e08000080fa00000006000400fa000e81e800e5
:100e180000497800630047000148780063004700f4
:100e2800104078000080fb00680060000000e000cf
:100e3800040032008040eb000e80e800104078008b
:100e4800e201070063004700104078000080fb00c3
:100e5800640060000000e0000400320011c0b3002c
:100e68000e80e80010407800d8010700a162200039
:100e78000e80e800104078000080fb000000400071
:100e8800008f40009e00780063004700904878007b
:100e98000080fa00000006000800fa000e82e80050
:100ea800004a780063004700014878006400470062
:100eb800020878006600470003487800630047008e
:100ec800104078000004e000080032000e80e800be
:100ed800104078000080fb00800040000096200051
:100ee80000804000100f7800070037000e80e800ef
:100ef800104078000080fb0080004000a095200092
:100f080000804000100f78001e0078000000e0000c
:100f180002003a000000eb0046003700640047007a
:100f2800900078001e0078000080e8000108780032
:100f38009e00780066004700904878001e00780000
:100f48000000e8001040780002c4b300824060004e
:100f58001e0078000000e800014878001e007800b4
:100f68000000e80010407800804078000134a000bc
:100f78001e0078000000e800014878001e00780094
:100f88000000e80010407800804078000174a0005c
:100f98001e0078000000e800014878006300470060
:100fa800104078000004e000110032000e80e800d4
:100fb800104078000080fb008e80e80091407800a7
:100fc8008180fb00018140000196200081004100e2
:100fd800910078000120a200010178008000400003
:100fe80000962000008040000208780010003700ba
:100ff8000e80e800104078000080fb008e80e8003a
:10100800914078008180fb0001814000a19520007b
:1010180081004100910078000120a20001017800c0
:1010280080004000a0952000008040000208780061
:101038001e0078000080fa00000006000400fa0094
:101048000e81e800004978006300470001487800f5
:101058000e80e800104078000004e00020003a000c
:101068003140800080c0b300804878003040800064
:10107800919720000080e800010878003040800047
:10108800c1c0b3000000e800014878003240800089
:10109800304080000000e800104078008040780070
:1010a8000174a0000200e80001487800004b8000ad
:1010b80041c0b3000000e80001487800024b8000fe
:1010c800004b80000000e800104078008040780065
:1010d8000174a0000200e800014878003a003700d7
:1010e8000e80e800104078000080fb0000004000ff
:1010f8008000780063004700104078000080fb0003
:10110800008040004300dd008000780000a020003f
:10111800008f40001e0078000000e80010407800b2
:10112800804078000124a0001e0078000000e8003c
:10113800014878001e0078000000e80010407800a0
:10114800804078000174a0001e0078000000e800cc
:10115800014878000e80e800104078000080fb000d
:1011680000004000800078006300470010407800cd
:101178000080fb00008040004300dd00e4004000e8
:1011880000a02000008f40001e0078000000e8004a
:1011980010407800804078000124a0001e007800ec
:1011a8000000e800014878001e0078000000e80010
:1011b80010407800804078000174a0001e0078007c
:1011c8000000e800014878000080fa0000000600ee
:1011d8000200fa00004f7800a130800000022000d1
:1011e800008060000000e000530032001e80fb0019
:1011f80080004000009620000080400090037800a6
:101208001e80fb0080004000009620000080400007
:10121800100078001002be00000420000100200029
:1012280004037800050278008002780081007800c5
:1012380005006300810062008101780000017800e8
:101248000200be00808bbe001e80fb0080004000b4
:101258000096200000804000100278001e80fb00ed
:1012680080004000009620000080400010007800b8
:101278001001be00000420000100200000006900e9
:1012880081806900008abe001e80fb009e80fb00f2
:101298000181400001962000810041009100780002
:1012a8000120a20001017800800040000096200083
:1012b80000804000020878001e80fb00800040008b
:1012c8000096200000804000100178001e80fb007e
:1012d8008000400000962000008040001000780048
:1012e8000000e8001040780003c4b30083406000a9
:1012f8000200e800014878001e80fb0080004000e2
:101308000096200000804000100178001e80fb003d
:101318008000400000962000008040001000780007
:101328000000e8009040780000c4b30080c0680066
:101338000200e800014878000080fa00000006007a
:101348000000fa001426ef000c26ef000028ef003a
:101358000080fa00000006000000fa00004080004b
:101368000000e00014003a001426ef000c26ef00fd
:1013780020002000303188002826ef000646a9000a
:10138800f009200080308800f009200060308800d3
:1013980002c6a800a2c0a800010037001406a800d1
:1013a800a0308000610060000000e000fbff320018
:1013b80010002000004088000080fa0000000600ad
:1013c8000000fa0013c8bf000004a2000004e000f7
:1013d8003f00320010c0b30013e8b70014c8bf00c4
:1013e8000004a2000004e0003900320010c0b3007d
:1013f80014e8b70009c8bf00e24f500010003a00d7
:10140800014b80000040eb0080487800004b8000d2
:1014180081c4b3000000e80001487800024b800056
:10142800004b80000000e800104078008040780001
:101438000174a0000200e800014878002400370089
:1014480009c8bf00e14f500021003a001068ef00c2
:101458002140800080c0b300804878002040800090
:10146800919720000080e800010878002040800063
:1014780041c0b3000000e800014878002240800025
:10148800204080000000e80010407800804078008c
:101498000174a0000200e8000148780010c0b30001
:1014a80010e8b7003140800080c0b3008048780061
:1014b80030408000919720000080e8000108780003
:1014c8003040800001c8b3000000e80001487800ff
:1014d8000080fa00000006000000fa001568ef001e
:1014e8001668ef0009c8bf00e24f500014003a0028
:1014f8003140800080c0b3008048780030408000d0
:10150800119820000080e800010878003040800031
:1015180081c4b3000000e800014878003240800030
:10152800304080000000e8001040780080407800db
:101538000174a0000200e80001487800210037008b
:10154800f09720001080fb00019820009180fb009c
:10155800c808dd0001007000514b8000810f500069
:1015680007003100f09720001080fb000198200050
:101578009180fb00c808dd0001007000504b880016
:10158800b0000700004b8000119820000080e800a0
:1015980001087800004b800081c4b3000000e80017
:1015a80001487800024b8000004b80000000e800f2
:1015b80010407800804078000174a0000200e80024
:1015c800014878000080fa00000006000400fa00d4
:1015d8000e81e80000497800630047000148780060
:1015e80000a02000000f78000e80e800104078006e
:1015f8000080fb0000004000800078006300470086
:10160800104078000080fb00008040004300dd00af
:101618001e0f40001e0078009000780001f0a10025
:101628000108780063004700104078000004e000db
:1016380008003a000e80e800104078000080fb00a7
:1016480080004000a0952000008040001e0878001f
:10165800070037000e80e800104078000080fb008b
:101668008000400000962000008040001e0878009e
:101678001e0078009000780001e0a10001087800c1
:101688009e007800648040009000780001e0a0008f
:10169800010878000080fa00000006000000fa0047
:1016a80014a6a900414b80000008200000806000bb
:1016b8000000e00030003a00e096200090407800fa
:1016c80000c8b30000c060000004e0000a00320057
:1016d80020c0b30009e8b70016c8bf000004a20084
:1016e8000004e000010032007bff07001468ef00ef
:1016f8001368ef00510037003140800080c0b3000c
:101708008048780030408000919720000080e800f1
:101718000108780030408000c1c0b3000000e80034
:101728000148780032408000304080000000e80026
:1017380010407800804078000174a0000200e800a2
:1017480001487800004b800041c0b3000000e80069
:1017580001487800024b8000004b80000000e80040
:1017680010407800804078000174a0000200e80072
:1017780001487800310037009097200090407800a9
:1017880000c8b30000c060000004e0000f00320091
:1017980010c0b30009e8b70015c8bf000004a200d4
:1017a8000004e000010032004bff07001468ef005e
:1017b8001368ef0012c8bf000004a2000004e00094
:1017c8001e003200fefe07001c00370020c0b300d8
:1017d80009e8b7003140800080c0b3008048780035
:1017e80030408000919720000080e80001087800d0
:1017f8003040800041c0b3000000e8000148780094
:1018080032408000304080000000e800104078003e
:10181800804078000174a0000200e80001487800c8
:101828001468ef001368ef0012c8bf000004a2009c
:101838000004e00001003200e1fe07000080fa0029
:10184800000006000200fa0080c0b300004f7800d4
:10185800504b8000e70f50000d003e00504b8000b9
:10186800004f780008c8bf000004e00003003a00f9
:1018780010c0b30008e8b7000500370008c8bf006b
:10188800e14f500002003a0020c0b30008e8b7005a
:10189800514b80001e80fb0000805000504b880098
:1018a800004b80001e4878001098200050408800a7
:1018b800404b8000610060000000e00017003a0023
:1018c8000900370051408000304b800010417800fb
:1018d800824878008100e800514088000000e80054
:1018e800304b88001e4fe9001e4078000004e000dd
:1018f800f4ff3a000c00370051408000304b800064
:1019080010417800824878008100e8005140880042
:101918000000e800304b88001e4fe9001e407800a8
:101928000004e000f4ff3a000080fa00000006001e
:101938000200fa0020408000104f78009e80fb00d3
:10194800f09620001080fb00029720001281fb0017
:101958004811dd0002007000808f5000070036003b
:10196800f09620001080fb00019720009180fb007a
:10197800c808dd0001007000004f7800f0962000d4
:101988001080fb00019720009180fb00c808dd0053
:1019980001007000800078001e80fb00008050006d
:1019a800f10f200001016000f196200091417800bc
:1019b800e0c1610002c1710082487800c800de0001
:1019c800009720001041780060416100814071005b
:1019d800014878008040eb000e00e80001487800dc
:1019e80020003700c09620001080fb00d196200010
:1019f8009180fb00c808dd00010070008e00e8003f
:101a0800914078008180fb001298200081004100fd
:101a180091407800014878000000e800f10f2000ac
:101a280001016000c196200091417800e0c1610089
:101a380002c1710082487800c800de00d0962000fc
:101a480010417800604161008140710001487800d0
:101a58000e00e800104078008040e8000e00e80022
:101a6800014878000e00e800104078009e4f5000b2
:101a7800dcff3900f09620001080fb000197200061
:101a88009180fb00c808dd00010070000000e00044
:101a9800270032003140800080c0b30080487800c1
:101aa80030408000119820000080e800010878008c
:101ab8002040800090007800000024000080600032
:101ac8000000e0000d003a003040800081c4b300ff
:101ad8000000e80001487800324080003040800073
:101ae8000000e80010407800804078000174a000f1
:101af8000200e800014878003800370030408000d4
:101b080081c0b3000000e80001487800324080003e
:101b1800304080000000e8001040780080407800e5
:101b28000174a0000200e800014878002b0037008b
:101b38003140800080c0b300804878003040800089
:101b4800919720000080e80001087800304080006c
:101b580041c0b3000000e80001487800324080002e
:101b6800304080000000e800104078008040780095
:101b78000174a0000200e8000148780010972000d6
:101b88001080fb00219720009180fb00c808dd0031
:101b9800010070000000e0000700320010972000ec
:101ba8001080fb00219720009180fb00c808dd0011
:101bb8000100700000000100e096200090407800cd
:101bc8000174a1000148780012c8bf000004a200f7
:101bd8000004e00001003200f9fd07000080fa006f
:101be800000006000200fa00404b80000070a000d0
:101bf800404b8800420020008000eb00c0622000bb
:101c080082fa0700020320008000eb0000a02000f9
:101c18007efa07001426a8000040eb00004f780069
:101c28000b0037001e80fb00329720008040eb003d
:101c380000004100014878001e80fb0062972000e8
:101c48008040eb0000004100014878001e4fe8008a
:101c58001e407800e24f5000f2ff360022002000bc
:101c68008000eb008095200068fa07001426a90080
:101c780080a02000004b880000a0200020408800a1
:101c88002040800030408800b09720001040780045
:101c980002e8b70002c8bf000004e00003003a00f1
:101ca80000012000004088000600370012002000d4
:101cb80021802000100020002d08070000022000cd
:101cc800004088000080fa00000006000000fa00ca
:101cd800909720009040780000c8b30080cf500053
:101ce80047003a008096200001ccb30001487800f4
:101cf800c0972000104078000080fb00e20f5000e1
:101d080009003200e30f500023003200e10f5000b9
:101d180037003a00c03d2800304b880020012000e1
:101d2800504b880036003700b097200010407800ec
:101d38000004e00014003a00b0972000104078003a
:101d48000080fb0000004000800078004048280028
:101d58000080400010007800304b8800304b800035
:101d68000080e80090407800a096200001487800a4
:101d7800304b80006300400090407800b09620000f
:101d8800014878001e003700809620008040eb0054
:101d9800014878001a003700b097200010407800fa
:101da800e24f50000e003e00b0972000104078002f
:101db8000080fb0000004000800078006048280098
:101dc8000080400010007800304b8800304b8000c5
:101dd800104078000080fb00504b88000800370056
:101de800809620008040eb0001487800040037000e
:101df800809620008040eb00014878000000000039
:101e08000080fa00000006000200fa001098200086
:101e18008040eb0001487800209820008040eb00cb
:101e28000148780090972000904078007fc06000bb
:101e38000080fb00e10f500011003200e20f50005b
:101e4800130032000000e00040003a00404b8000e0
:101e58000070a000404b88000cc8bf000004e000e0
:101e6800350032001098200010407800804078003b
:101e78000114a000109820000148780033003700b2
:101e8800404b80000070a000404b88002f003700b6
:101e9800404b80000070a000404b8800d097200085
:101ea8009040780000c8b30000c060000004e00063
:101eb80009003a00d0972000904078006fc0600079
:101ec8000080fb0080004000a095200000804000ba
:101ed800100f780008003700d09720009040780055
:101ee8006fc060000080fb0080004000009620006a
:101ef80000804000100f78001e00780090007800e5
:101f080000002800008060000000e0000c003200a3
:101f18001e007800900078000040200000806000db
:101f28000000e000080032001098200011c0b30043
:101f38000148780005003700000000000300370062
:101f4800000000000100370000000000414b800045
:101f580000082000008060000000e0000800320057
:101f680010982000304b8800404b80000000a000f3
:101f7800404b8800a096200021c0b300014878009b
:101f88000080fa00000006000000fa0050318000ce
:101f9800620060000000e00019003200204080006c
:101fa8000000e8009040780000c8b30080cf5000df
:101fb80012003a00004b80000000e80090407800d2
:101fc80040c8b30080cf50000c003a002040800089
:101fd800c1c0b3000000e80001487800224080003a
:101fe800204080000000e800104078008040780021
:101ff8000174a0000200e800014878002a26a90020
:1020080000082000503088000080fa000000060018
:102018000000fa000286a800000120005030880065
:1020280010c0b3000de8b7001c68ef000001eb001a
:102038008000eb00500720004d0707000080fa00e1
:10204800000006000000fa000d68ef000001eb0038
:102058008000eb0040072000450707000286a90022
:1020680000012000003088001c68ef000080fa00a2
:10207800000006000000fa00d0c2b30011e8b70063
:102088000ec8bf000080fb000020a1000000e00097
:1020980020003a000ec8bf000080fb004200de00ae
:1020a800004078000080fb00c200dd0000a0200096
:1020b8000080400020408800204080003040880098
:1020c800304080000020a20030408800204080007e
:1020d8009000780000c0230080806000004023004a
:1020e800808f500009003a00204080000080e800fe
:1020f800100078008200200080007800909720006f
:102108003bf907000b0007000800370046000700ee
:10211800060037000ec8bf000080fb000020a100a9
:10212800e80f500001003a00610007000080fa0043
:10213800000006000000fa000868ef001268ef00cf
:102148001568ef001668ef001068ef000968ef00e7
:10215800024b8000004b80000000e800104078002f
:10216800804078000174a1000200e800014878006e
:10217800004b80000020a200004b8800024b80002a
:10218800004b80000000e800104078008040780094
:102198000174a1000200e80001487800004b8000ab
:1021a8000020a200004b88003240800030408000b0
:1021b8000000e80010407800804078000174a10019
:1021c8000200e80001487800809620008040eb007b
:1021d800014878000000eb00504b8800e096200092
:1021e8008040eb0001487800f0962000904078008d
:1021f800e0c0600001487800009720009040780017
:10220800e0c0600001487800940007000001eb007e
:102218008000eb0030002000d50607001ffd0700f6
:102228000080fa00000006000000fa0009c8bf009c
:10223800e24f500002003a00bdfd07001a003700c7
:102248000968ef0010c8bf000004a2000004e00005
:10225800140032003140800080c0b300804878000c
:1022680030408000919720000080e8000108780045
:1022780030408000c1c0b3000000e8000148780089
:1022880032408000304080000000e80010407800b4
:10229800804078000174a0000200e800014878003e
:1022a800010037001068ef000080fa000000060007
:1022b8000200fa00004b8000100078004e00de009b
:1022c80061406000004f7800004b80000020a200b1
:1022d800004b880000408000e80f50000e003a00d4
:1022e800b0972000104078008080fb00f0072000a5
:1022f80000806000b0308800b03080000000e0004e
:10230800030032000001200000408800020037006e
:10231800400020000040880009c8bf00e14f50007d
:1023280032003a00004b8000119820000080e8003d
:102338000108780043fd070008c8bf00e24f5000bd
:102348000d003a00004b800041c0b3000000e800d7
:1023580001487800024b8000004b80000000e80034
:1023680010407800804078000174a0000200e80066
:1023780001487800370037001e4078000004e0006c
:102388000d003a00004b800081c4b3000000e80053
:1023980001487800024b8000004b80000000e800f4
:1023a80010407800804078000174a0000200e80026
:1023b8000148780027003700004b800081c0b30037
:1023c8000000e80001487800024b8000004b8000c4
:1023d8000000e80010407800804078000174a000f8
:1023e8000200e800014878001a003700e096200053
:1023f8009040780000c8b30000c060000004e0000e
:1024080013003200109720001080fb002197200055
:102418009180fb00c808dd00010070000000e000aa
:1024280007003200109720001080fb002197200041
:102438009180fb00c808dd00010070000000010069
:10244800e0962000904078000174a10001487800cf
:102458000968ef000080fa00000006000000fa009a
:1024680090972000104078000046b2000004e00079
:1024780051003a00a0972000104078000080fb002f
:10248800cf80de00b200200003002000820f500041
:10249800838f58004a003e00006001002100370089
:1024a8002200370048003700200037004600370078
:1024b800060037000b0037003a0037000d003700e0
:1024c8000a0037001b0037002a003700404b800005
:1024d8000070a000404b8800800020000040880069
:1024e8003a003700f9fd070038003700bdfd070046
:1024f8003600370020802000304b8800404b800099
:102508000000a000404b8800a096200011c0b30036
:1025180001487800404b80000070a000404b8800c4
:102528002a00370038fe0700280037002900070076
:1025380026003700d0972000104078008080fb00ec
:102548008095200000804000304b8800404b800080
:102558000000a000404b8800a096200011c0b300e6
:1025680001487800404b80000070a000404b880074
:1025780016003700404b80000070a000404b8800d8
:10258800d0972000104078000080fb00b197200011
:1025980091407800829520000000410001487800b1
:1025a8000a0037000001eb008000eb00200020004b
:1025b800ef050700050037000000000003003700a2
:1025c8000000000001003700000000000080fa0051
:1025d800000006000600fa00b097200010407800be
:1025e800e14f500010003a0090972000104078000a
:1025f8007f4060000004e0000b003a00404b800080
:102608000070a000404b8800a09720001040780080
:10261800e34f500003003a0010c0b3000ce8b700c5
:10262800010037000c68ef00b097200010407800d8
:102638000004e0000b013a00909720001040780059
:102648007f406000e24f500006013a00d09720001a
:10265800104078006f4060000004e0000101320083
:10266800d0972000904078006fc060000080fb0089
:10267800e20f5000fb003c000140800000022000f7
:10268800808f5000f7003a00404b80000070a00097
:10269800404b8800d09720009040780000c8b300d5
:1026a80000c060000004e00012003a00d09720004b
:1026b800104178006f4061000080fb0080004000fe
:1026c800a095200000804000100f7800d0972000cf
:1026d800904078006fc060000080fb006197200088
:1026e800008040009040780064004700014878006e
:1026f80011003700d0972000104178006f4061002a
:102708000080fb0080004000009620000080400010
:10271800100f7800d0972000904078006fc06000bc
:102728000080fb0031972000008040009040780036
:1027380064004700014878006400470010407800b2
:10274800614060000004e00004003a001e007800c8
:102758000020a100000f7800030037001e00780059
:102768000020a000000f7800d0972000904078004b
:1027780000c8b30000c060000004e0000a003a008e
:10278800d0972000104178006f4061000080fb0066
:102798001e01780080004000a095200000804000c5
:1027a8000208780009003700d09720009040780090
:1027b8006fc060000080fb001e01780080004000b0
:1027c800009620000080400002087800a0972000b2
:1027d80010407800e34f500030003a001e007800a7
:1027e8009000780000002800008060000000e000f1
:1027f80019003200d09720009040780000c8b3003c
:1028080000c060000004e0000a003a00d0972000f1
:10281800104178006f4061008080fb0060972000c5
:1028280000804000904078000114a0000148780022
:1028380009003700d0972000904078006fc06000f2
:102848008080fb0030972000008040009040780096
:102858000114a000014878001e0078000000e8007c
:1028680010407800804078000124a0001e00780005
:102878000000e800014878001e0078000000e80029
:1028880010407800804078000174a0001e00780095
:102898000000e80001487800720037001e00780048
:1028a8000020a200000f78001e0078009000780039
:1028b80000002800008060000000e00015003200e1
:1028c8001e0078000000e800104078008040780082
:1028d8000174a1001e0078000000e800014878009b
:1028e8001e0078000000e800104078008040780062
:1028f8000164a0001e0078000000e800014878008c
:10290800220020009e0078005000200018050700d3
:10291800080037001e0078000000e800104078002a
:10292800804078000164a0001e0078000000e800e4
:10293800014878001e0078000020a200000f7800ef
:102948006400470010407800624060000004e00026
:1029580006003a001e007800900078000000280069
:10296800008060000000e00026003200d0972000c0
:102978009040780000c8b30000c060000004e00088
:102988000a003a00d0972000104178006f4061009b
:102998008080fb0060972000008040009040780015
:1029a8000114a1000148780009003700d0972000e1
:1029b800904078006fc060008080fb003097200056
:1029c80000804000904078000114a1000148780080
:1029d8001e0078000000e80010407800b2c3b30081
:1029e800824060001e0078000000e800014878007e
:1029f800220020009e00780050002000dc04070020
:102a0800080037001e0078000000e8001040780039
:102a1800b2c3b300824060001e0078000000e800e6
:102a280001487800a1622000d0972000104178006a
:102a38006f4061000080fb00000040008080400083
:102a48000e80e800010878000e80e8001000780089
:102a5800104078000014a1008e80e80091007800f2
:102a6800804878000080fa00000006000000fa00a4
:102a7800c0408000d140800061004000e0804800f4
:102a8800c0408800d14088000dc8bf000004a200e3
:102a98000004e000080032001cc8bf000040e80045
:102aa8001ce8b7001cc8bf000004e00002003a00a0
:102ab80000c0eb001ce8b7000080fa000000060028
:102ac8000400fa00c2408000d3408000028fbe009c
:102ad800c0408000d14080001e01be00800f510020
:102ae800818f5900f7ff3a001e00be000080fa00ef
:102af800000006000000fa009097200010407800bf
:102b08007f406000e14f500078003a009097200025
:102b18001040780002c6b3008240600000c2b300d3
:102b280080cf500073003a00d09720001040780002
:102b38000004e00004003200d09720001040780024
:102b4800e14f50006d003a00a09720001040780037
:102b58000080fb0001022000810f5000200032009d
:102b680001022000810f500005003c000000e00039
:102b78000a003200e10f50001300320060003700f5
:102b880011022000810f5000430032002102200072
:102b9800810f50004800320059003700008d200096
:102ba800304b880080002000504b8800404b80004c
:102bb8000000a000404b8800404b80000070a0003f
:102bc800404b88004e003700008d2000304b8800b5
:102bd800404b80000070a000404b88004800370040
:102be800f09720001080fb00019820009180fb00e6
:102bf800c808dd0001007000f10f2000010160002d
:102c0800f196200091417800e0c1610002c1710095
:102c180082487800c800de00009720001041780044
:102c2800604161008140710001487800e08b20001c
:102c3800f10f200001016000c19620009141780049
:102c4800e0c1610002c1710082487800c800de005e
:102c5800d0962000104178006041610081407100e9
:102c6800014878001097200090407800e0c060008c
:102c7800014878002097200090407800e0c060006c
:102c880001487800e0962000904078000174a00088
:102c9800014878001a003700e08b2000304b88008c
:102ca80070002000504b88008096200011ccb300a3
:102cb8000148780012003700b09720001080fb0010
:102cc800c19720009180fb00c808dd00010070005a
:102cd800004078002ae8b700404b80000070a00050
:102ce800404b88000000000005003700000000008d
:102cf800030037000000000001003700000000005a
:102d08000080fa00000006000000fa0000b024006d
:102d180001002000f045880001468800208c200032
:102d28008040eb0001487800308c20008040eb00a8
:102d380001487800408c200081c0b3000148780029
:102d48001e68ef0051c1b30010c0b3002ef8070091
:102d5800d1c1b30020c0b3002bf8070003c4b300ef
:102d6800e28720008040eb0020c0b3004af807004b
:102d7800304188002828ef001f68ef000080fa0023
:102d8800000006000600fa00000f78000e80e80038
:102d98000108780064004700020878001e007800e7
:102da800e50f500014003a00314180000e80e80021
:102db80010007800810f500006003a0003c4b300e9
:102dc800e28720008040eb0020c0b30032f8070003
:102dd80030418800414180000e80e80010007800f2
:102de800810f500002003a001f68ef002468ef00ce
:102df80010c0b300010037000040eb000080fa006b
:102e0800000006000400fa00000f78000e80e800b9
:102e1800014878001e68ef00304180000000e000a3
:102e28000600320030418000900078000000280041
:102e3800008060000000e00025003a00304180007a
:102e4800904078000e80e8001040780080cf500055
:102e58000400310030418000800078000e80e800d6
:102e6800114878001e68ef000d0037001ec8bf002b
:102e78000080fb001e004000e181200091407800a6
:102e88008180fb00e28720008100410091407800aa
:102e9800014878001ec8bf000040e8001ee8b700df
:102ea800e1812000914078000e80e8001040780011
:102eb80080cf5000edff390003c4b300e287200043
:102ec8008040eb0020c0b300f3f7070030418800d2
:102ed8001ec8bf000080fa00000006000400fa00c7
:102ee800000f78000e80e80001487800a2c0a90011
:102ef8001fc8bf000004e0000a003a009e007800e6
:102f0800014188000e80e80090407800428220004d
:102f18000149780010c0b30025e8b70010c0b3001d
:102f28001fe8b700a2c0a8000080fa000000060051
:102f38000600fa00e400470080087800a2c0a90053
:102f48001fc8bf000004e00002003200a2c0a800b1
:102f5800240037000040eb00004f78000e80e800a6
:102f6800e4004700110878001e4fe8001e40780072
:102f7800e14f40000f0032000e80e800100078009a
:102f8800104078000080fb000000ea004f00de00df
:102f9800004078008e80e800910078000101e80088
:102fa8008e80e800820878000004e000eeff3a0016
:102fb800010037000000000064004700100078009e
:102fc800004188001e417800418220008248780034
:102fd80010c0b30025e8b70010c0b3001fe8b70061
:102fe800a2c0a8000080fa00000006000600fa004f
:102ff800e400470080087800a2c0a9001fc8bf00ed
:103008000004e00002003200a2c0a800230037003c
:103018000040eb00004f78000e80e800e400470015
:10302800110878001e4fe8001e407800e14f40006c
:103038000f0032000e80e800100078001040780081
:103048000080fb000000ea004f00de00004078002e
:103058008e80e800910078000101e8008e80e80089
:10306800820878000004e000eeff3a000100370013
:10307800000000006400470010007800004188004c
:103088001e41780041822000824878002568ef00c0
:1030980010c0b3001fe8b700a2c0a8000080fa0063
:1030a800000006000200fa00a2c0a900404180000a
:1030b8000000e000080032004041800090007800e5
:1030c80000002800008060000000e00002003200dc
:1030d800a2c0a800680037001fc8bf00e34f500017
:1030e80001003a001f68ef001fc8bf000004e0009d
:1030f80002003a00a2c0a8005f0037001fc8bf0046
:10310800e24f500009003a008041eb000001eb005b
:1031180011c0b30020c0b3005ff70700404188002a
:1031280030c0b3001fe8b700520037001fc8bf0007
:10313800e14f50004f003a00418220009140780052
:1031480000c4b30080cf50000300360000c4b300b1
:10315800004f78000300370041822000914078003a
:10316800014f780024c8bf001e40500024e8b70073
:10317800e0832000104188000e00e8001e48780017
:1031880025c8bf000004e00024003a000f00370003
:10319800114180000041800010407800804878008c
:1031a800104180000000e8001041880000418000c4
:1031b8000000e800004188000e00e8001040780098
:1031c8008040e9000e00e800014878000e00e800a1
:1031d800104078000004e000edff3a0013003700cb
:1031e800114180000041800010407800804878003c
:1031f800104180000000e800104188000041800074
:103208000000e800004188000e00e8001040780047
:103218008040e9000e00e800014878000e00e80050
:10322800104078000004e000edff3a0024c8bf0019
:103238000004e00009003a0000c4b3009e40780092
:1032480080cf500003003a0020c0b3001fe8b70049
:103258000200370030c0b3001fe8b7009e41780075
:10326800e283200011c0b30020c0b3000af70700b2
:1032780040418800a2c0a8000080fa0000000600b3
:103288000000fa00ab0007000cc8bf000004e00013
:10329800010032000dc8bf000040fe005130800020
:1032a80000022000008060000000e00002003a00f8
:1032b80010c0b30041000700dc00070010c0b300d5
:1032c8000080fa00000006000000fa000cc8bf00e9
:1032d8000004e000360032000dc8bf000004e00022
:1032e8003300320040308000620060000000e000df
:1032f800010032000826a9007a0007000004200017
:103308000030880000000000013080000004200028
:10331800008060000000e000fbff32000004200095
:103328000030880000000000013080000004200008
:10333800008060000000e000fbff32000004200075
:1033480000308800000000000130800000042000e8
:10335800008060000000e000fbff32001446a80077
:1033680000042000003088000000000001308000c8
:1033780000042000008060000000e000fbff320035
:1033880000042000003088000000000001308000a8
:1033980000042000008060000000e000fbff320015
:1033a8001446a9005c00070010c0b30001003700f4
:1033b8000040eb000080fa00000006000400fa005c
:1033c8008e80e8008048780040308000610060000e
:1033d8000000e0000b003200403080006200600016
:1033e8000000e00007003a001cc8bf00e34f50008f
:1033f80004003600203080004300de006140600099
:10340800360037000e80e800104078000004e00025
:10341800200032000826a9000806a800310007008d
:103428000040eb00004f780009003700000420003e
:1034380000308800000000000130800000042000f7
:10344800008060000000e000fbff32001e4fe80033
:103458001e407800e44f5000f4ff36008040eb0037
:103468000e00e80001487800203080006800600005
:103478000000e0000300320011c0b3000e00e800b5
:1034880001487800240007000e00e800104078008a
:103498001200370040308000610060000000e0004a
:1034a80002003a0000c0eb000c00370040308000fa
:1034b800620060000000e00002003a00e0cfb300c4
:1034c800060037001cc8bf00e34f500002003e0052
:1034d800d0cfb30001003700c0cfb3000080fa009e
:1034e800000006000000fa003868ef001000fc0039
:1034f8001105800000042000008060000000e0004a
:103508000200320010c0b30038e8b700a2c0a9001a
:103518000080fa00000006000000fa0038c8bf006a
:103528000004e00001003200a2c0a8000080fa00f8
:10353800000006000400fa001e00fc0011028000d2
:10354800000e200000806000804188001102800089
:10355800000e200001007000100288008109200080
:103568000e80e800010878000000eb00000f7800ea
:10357800120037000e80e800100078001001780073
:103588001e00780080004000a09a200000804000c3
:10359800020878000e80e800100078008000eb0038
:1035a800010878000e80e800100078008080e800ac
:1035b8000e80e800010878001e0fe8001e00780061
:1035c800e60f5000ebff3600603080009041880025
:1035d8000c26ef0010308000a04188000226ef0082
:1035e800900680004800de00674060000080fb0015
:1035f800b04188000001200000308800000220004f
:103608005030880092c0a9000286a8009106800068
:10361800f08f2f000080600000a0a00090068800b6
:10362800a2c0a8000080fa00000006000400fa000a
:10363800810920000e80e800010878000000eb00f6
:10364800000f78000e0037001e0078008000400050
:10365800a09a200000804000900078000e80e800ca
:1036680010007800010878000e80e800100078004b
:103678008080e8000e80e800010878001e0fe8004e
:103688001e007800e60f5000efff360090418000e2
:1036980060308800a041800010308800b041800070
:1036a80000407800674060000080fb006700600011
:1036b8004800dd0092068000f18f2f008100610034
:1036c800010070009006880011028000f0f12f00c0
:1036d8000080600081418000008070008041880087
:1036e80080418000100288000080fa000000060077
:1036f8000000fa00f623ef00f823ef00fc23ef00a8
:103708000424ef000824ef000a24ef000c24ef0043
:103718000e24ef0010422800a01f88000080fa0045
:10372800000006000400fa00000f78000e80e80090
:103738000108780000000000e01f800062006000bf
:103748000000e000fcff3a001e007800100078003e
:103758000020880000000000e11f80000002200017
:10376800008060000000e000fbff3a000e80e800e7
:103778001000780001208000010878000080fa001d
:10378800000006001800fa00f201470080097800de
:1037980074004700010878007600470002087800a6
:1037a8000000eb00000f78008000eb000e80e800be
:1037b800010878008000eb006e00470001087800df
:1037c8008000eb007000470001087800210020000d
:1037d8006c0047000108780074004700100078006a
:1037e8008000d1007400470001087800720047008b
:1037f800100078000000e00007003a008000eb00ad
:103808006a00470001087800f0004700640047009c
:1038180001087800060037006a004700ec004700fe
:103828001108780064004700f2004700110878008a
:1038380076004700100078000000e00007003a001a
:103848008000eb006800470001087800ee004700a0
:103858006600470001087800070037006800470045
:10386800ec0047001108780066004700f6004700a2
:103878001108780000000000e01f8000620060006e
:103888000000e000fcff3a0025003700e01f800040
:10389800620060000000e0000c003a00640047008d
:1038a80010007800100078000020880064004700ad
:1038b800900078006a00470010007800808040007f
:1038c80064004700010878001e0fe800e11f80002f
:1038d80000022000008060000000e00010003a00b4
:1038e8006600470010007800012080000108780079
:1038f80066004700900078006800470010007800d4
:103908008080400066004700010878000e80e800cb
:10391800100078008000e8000e80e80001087800b8
:1039280074004700100078009e007800808f5000d7
:10393800d6ff390015003700e11f80000002200083
:10394800008060000000e00010003a0066004700b8
:103958001000780001208000010878006600470008
:1039680090007800680047001000780080804000d0
:1039780066004700010878000e80e8001000780013
:103988008000e8000e80e800010878000e80e8005a
:10399800900078007400470010007800808f500075
:1039a800e5ff39001e0078000080fa0000000600dc
:1039b8000400fa008e80e800800878008e00780005
:1039c8000e80e80057ff07001e0078000080fa000c
:1039d800000006000600fa00000f78000e80e800dc
:1039e8000108780064004700020878006400470076
:1039f800900078001e007800010178008e80e800b1
:103a0800910078005fff07000080fa0000000600c0
:103a18000000fa00e01f80000080fa0000000600a5
:103a28000000fa0040402800a03988000000240067
:103a3800b039880040002000c03988003a27ef00dc
:103a48003c27ef003e27ef004027ef004227ef001a
:103a58004627ef004c27ef0080d321000500070020
:103a68000080fa00000006000000fa000080fa005a
:103a7800000006000200fa00000f78001e0078001f
:103a8800e04188000080fa00000006000000fa000b
:103a98004104800000002200008060000000e00077
:103aa80006003200e04180000000e0000200320021
:103ab800e04180000000010089a0a9000080fa0010
:103ac800000006000000fa003427a8000080fa0071
:103ad800000006000000fa003427a9000080fa0060
:103ae800000006000800fa00e60047008008780099
:103af800b03980004200de007f4060008080fb001b
:103b08006400470001087800017020000e80e8007a
:103b1800010878000000eb00000f78000f00370064
:103b28001e00780000004000e60047009100780081
:103b3800008040008e80e8009100780091007800b5
:103b4800010878000e80e800100078008080e80006
:103b58000e80e800010878001e0fe8009e0078003b
:103b68006400470010007800808f5000ecff36009a
:103b78001e0078000080fa00000006000200fa002b
:103b880000408000ff0f50003b00360040308000ae
:103b9800620060000000e00039003a001fc8bf0062
:103ba8000004e00032003a0001c4b300808d200018
:103bb80094fc07008e00e800804878000040eb0085
:103bc800004f78001d0037001e80fb00818d20000b
:103bd80000804000104078000080fb00ea0f500091
:103be80002003200ed0f500009003a001e80fb0071
:103bf8009e80fb00828d200081004100914078006a
:103c08008291200000004100014878000a00370036
:103c18001e80fb009e80fb00828d200081004100f9
:103c2800914078008140e800829120000000410026
:103c380001487800000000001e4fe8000e00e80070
:103c4800104078009e40780080cf5000deff390099
:103c58000e00e800104078000004e0000400320084
:103c68000e00e80090407800809120009bfc07003f
:103c78000cfd0700030037000000000001003700ba
:103c8800000000000080fa00000006000000fa00b2
:103c98006626ef007a26ef007000200010338800b7
:103ca800f0cd2e00b03388007426ef008826ef0090
:103cb8007226ef008626ef007426ef008826ef00b4
:103cc8007226ef008626ef006826ef007c26ef00bc
:103cd800300020005033880030002e00f033880078
:103ce80001088000f00b20000081600060042000c3
:103cf8007105200003102000804978008149780070
:103d080082497800e13e800000f82f0000806000c2
:103d18007000b300e03e8800c13d8000f00f2c0029
:103d2800808060000070200001007000c03d8800a5
:103d3800d13e8000f00f28000080600000b0a00095
:103d4800d03e880000088000000178000260a000d2
:103d580060042000710520000310200080497800cd
:103d680081497800824978000080fa000000060046
:103d78000600fa00000f78000e80e80001087800bd
:103d880064004700020878001e0078002107200020
:103d9800810f50001800320021072000810f5000c9
:103da8000a003c00e20f500015003200e20f5000fc
:103db80003003c00e10f50000b00320015003700f3
:103dc800e30f50000a0032001200370041072000bc
:103dd800810f50000c00320041072000810f500075
:103de8000b0035000b003700c7fb07000900370040
:103df80040fb0700070037000000000005003700ff
:103e08000000000003003700000000000100370038
:103e18000000000010c0b3000080fa000000060097
:103e28000000fa0000002300100888000621ef00b7
:103e38006821ef006a21ef000c21ef000e21ef004e
:103e48007821ef007c21ef007e21ef008021ef0038
:103e58008421ef008621ef00320020008007200037
:103e6800a1092000131020008049780081497800ba
:103e780082497800120020006004200071052000ab
:103e88000310200080497800814978008249780031
:103e98000000000000088000610060000000e000f1
:103ea800fcff3a000000000001088000000220002a
:103eb800008060000000e000fbff32000080fa0094
:043ec80000000600f0
:020000040000fa
:103ecc008a09000020000000800000003a08000071
:103edc000200000082000000ffff000058090000f3
:103eec003200000080000000000800001e000000ee
:103efc0080000000000a000030000000800000007c
:103f0c00d808000080000000800000003e0800007f
:103f1c009a000000800000001e0800001200000043
:103f2c00800000003c08000002000000800000003f
:103f3c00aa0900000e0000008000000030080000fc
:0c3f4c000a0000008000000000000000df
:020000040000fa
:103f58000200fa00000f78009e007800d141880026
:103f6800ffff37000000fa00a098200080077800c3
:103f7800209a2000000188000080fa000000060056
:103f88000000fa0041ff070007000700a4ff070030
:103f98005ff20700f0f40700d5fd0700a0fe070058
:103fa8000080fa00000006000000fa009106800078
:103fb800f08f2f00008060000080a000900688002d
:103fc8000080fa00000006000000fa00ecff07007d
:083fd800eafe0700feff3700be
:020000040000fa
:020000040001f9
:045e0000ffffff00a1
:020000040000fa
:020000040001f9
:045e2000ffffff0081
:020000040000fa
:020000040001f9
:045e300018ffff0058
:020000040000fa
:020000040001f9
:045e380072ffff00f6
:020000040000fa
:020000040001f9
:045e40009fffff00c1
:020000040000fa
:020000040001f9
:045e4800ffffff0059
:020000040000fa
:020000040001f9
:045e5000deffff0072
:020000040000fa
:020000040001f9
:045e58000000ff0047
:020000040000fa
:020000040001f9
:045e60000000ff003f
:020000040000fa
:020000040001f9
:045e68000000ff0037
:020000040000fa
:020000040001f9
:045e70000000ff002f
:020000040000fa
:020000040001f9
:045e7800ffffff0029
:020000040000fa
:020000040001f9
:045e8000ffffff0021
:00000001FF
