:020000040000fa
:080000000001040000000000f3
:020000040000fa
:0400080004020000ee
:020000040000fa
:04000c0046020000a8
:020000040000fa
:040010008602000064
:020000040000fa
:0400140024020000c2
:020000040000fa
:04001800660200007c
:020000040000fa
:04001c00c602000018
:020000040000fa
:04002000a602000034
:020000040000fa
:04002400c602000010
:020000040000fa
:04002800c60200000c
:020000040000fa
:04002c00c602000008
:020000040000fa
:04003000c602000004
:020000040000fa
:04003400c602000000
:020000040000fa
:04003800c6020000fc
:020000040000fa
:04003c00c6020000f8
:020000040000fa
:04004000c6020000f4
:020000040000fa
:04004400c6020000f0
:020000040000fa
:04004800c6020000ec
:020000040000fa
:04004c00c6020000e8
:020000040000fa
:04005000c6020000e4
:020000040000fa
:04005400c6020000e0
:020000040000fa
:04005800c6020000dc
:020000040000fa
:04005c00c6020000d8
:020000040000fa
:04006000c6020000d4
:020000040000fa
:04006400c6020000d0
:020000040000fa
:04006800c6020000cc
:020000040000fa
:04006c00c6020000c8
:020000040000fa
:04007000c6020000c4
:020000040000fa
:04007400c6020000c0
:020000040000fa
:04007800c6020000bc
:020000040000fa
:04007c00c6020000b8
:020000040000fa
:04008000c6020000b4
:020000040000fa
:04008400c6020000b0
:020000040000fa
:04008800c6020000ac
:020000040000fa
:04008c00c6020000a8
:020000040000fa
:04009000c6020000a4
:020000040000fa
:04009400c6020000a0
:020000040000fa
:04009800c60200009c
:020000040000fa
:04009c00c602000098
:020000040000fa
:0400a000c602000094
:020000040000fa
:0400a400c602000090
:020000040000fa
:0400a800c60200008c
:020000040000fa
:0400ac00c602000088
:020000040000fa
:0400b000c602000084
:020000040000fa
:0400b400c602000080
:020000040000fa
:0400b800c60200007c
:020000040000fa
:0400bc00c602000078
:020000040000fa
:0400c000c602000074
:020000040000fa
:0400c400c602000070
:020000040000fa
:0400c800c60200006c
:020000040000fa
:0400cc00c602000068
:020000040000fa
:0400d000c602000064
:020000040000fa
:0400d400c602000060
:020000040000fa
:0400d800c60200005c
:020000040000fa
:0400dc00c602000058
:020000040000fa
:0400e000c602000054
:020000040000fa
:0400e400c602000050
:020000040000fa
:0400e800c60200004c
:020000040000fa
:0400ec00c602000048
:020000040000fa
:0400f000c602000044
:020000040000fa
:0400f400c602000040
:020000040000fa
:0400f800c60200003c
:020000040000fa
:0400fc00c602000038
:020000040000fa
:04010000c602000033
:020000040000fa
:04010400c60200002f
:020000040000fa
:04010800c60200002b
:020000040000fa
:04010c00c602000027
:020000040000fa
:04011000c602000023
:020000040000fa
:04011400c60200001f
:020000040000fa
:04011800c60200001b
:020000040000fa
:04011c00c602000017
:020000040000fa
:04012000c602000013
:020000040000fa
:04012400c60200000f
:020000040000fa
:04012800c60200000b
:020000040000fa
:04012c00c602000007
:020000040000fa
:04013000c602000003
:020000040000fa
:04013400c6020000ff
:020000040000fa
:04013800c6020000fb
:020000040000fa
:04013c00c6020000f7
:020000040000fa
:04014000c6020000f3
:020000040000fa
:04014400c6020000ef
:020000040000fa
:04014800c6020000eb
:020000040000fa
:04014c00c6020000e7
:020000040000fa
:04015000c6020000e3
:020000040000fa
:04015400c6020000df
:020000040000fa
:04015800c6020000db
:020000040000fa
:04015c00c6020000d7
:020000040000fa
:04016000c6020000d3
:020000040000fa
:04016400c6020000cf
:020000040000fa
:04016800c6020000cb
:020000040000fa
:04016c00c6020000c7
:020000040000fa
:04017000c6020000c3
:020000040000fa
:04017400c6020000bf
:020000040000fa
:04017800c6020000bb
:020000040000fa
:04017c00c6020000b7
:020000040000fa
:04018000c6020000b3
:020000040000fa
:04018400c6020000af
:020000040000fa
:04018800c6020000ab
:020000040000fa
:04018c00c6020000a7
:020000040000fa
:04019000c6020000a3
:020000040000fa
:04019400c60200009f
:020000040000fa
:04019800c60200009b
:020000040000fa
:04019c00c602000097
:020000040000fa
:0401a000c602000093
:020000040000fa
:0401a400c60200008f
:020000040000fa
:0401a800c60200008b
:020000040000fa
:0401ac00c602000087
:020000040000fa
:0401b000c602000083
:020000040000fa
:0401b400c60200007f
:020000040000fa
:0401b800c60200007b
:020000040000fa
:0401bc00c602000077
:020000040000fa
:0401c000c602000073
:020000040000fa
:0401c400c60200006f
:020000040000fa
:0401c800c60200006b
:020000040000fa
:0401cc00c602000067
:020000040000fa
:0401d000c602000063
:020000040000fa
:0401d400c60200005f
:020000040000fa
:0401d800c60200005b
:020000040000fa
:0401dc00c602000057
:020000040000fa
:0401e000c602000053
:020000040000fa
:0401e400c60200004f
:020000040000fa
:0401e800c60200004b
:020000040000fa
:0401ec00c602000047
:020000040000fa
:0401f000c602000043
:020000040000fa
:0401f400c60200003f
:020000040000fa
:0401f800c60200003b
:020000040000fa
:0401fc00c602000037
:020000040000fa
:100200002f8220000e7f22000e01880000000000d7
:10021000000020000000e000020032000001200089
:100220002002880014000700da0007000000e00048
:1002300003003a0040362000010020000200370091
:100240000000200001002000810f7000010032003a
:1002500014000700000020000000e000020032004f
:100260000000020000000000860302000000000001
:100270000040da000000fe004440a90020002000f9
:100280000000e00003003200100020009001880010
:100290004440a800000006008a1f78008b1f7800e9
:1002a00000000600a1028800800478000000eb0036
:1002b0001f003700e284440054a0b4009905ba003e
:1002c000e284440054a0b4009906ba00e2844400d9
:1002d00054a0b4000006eb00476fde00fd07b2003b
:1002e000ae018800636ce10003003a00eaff0700fa
:1002f0000000eb000e003700606ce10008003a00df
:10030000004deb000a05e800020039003420ec0043
:100310000af0a0008b05e900f9ff3e000400370059
:100320006168e100010032000086eb000b0007006d
:1003300019c7ba001905ba000e04e00003003a001c
:100340000a00e000dbff3a0000000600fe07b200f2
:10035000ae0288008a047800f5ff37000cd0a300b5
:10036000e20f4d001c00390089027800354dba00bb
:100370000a05e800020039003420ec000af0a00071
:100380008b05e9000f003200254dba000a05e80090
:10039000020039003420ec000af0a0008b05e900cf
:1003a000080032000c00e0000600320015cdba0053
:1003b0000a05e800020039003420ec000af0a00031
:1003c0008b05e9008984e80054a0b4000b00e0002c
:1003d000e2ff3a00000006009902ba00055d7800cd
:1003e0008b05e900f7ff3200c82ade00055d7800c2
:1003f0008b05e900f3ff32000c00e000f1ff320052
:1004000019ddba00eeff37003600f800809fbe000d
:10041000829fbe00849fbe00869fbe000000fa003f
:100420008020a9000000eb009b0007000080fa007c
:100430004f03be004f02be004f01be004f00be0082
:100440003600f900004006003600f800809fbe002c
:10045000829fbe00849fbe00869fbe000000fa00ff
:10046000920007008040a900100020008a000700c9
:100470000080fa004f03be004f02be004f01be00d5
:100480004f00be003600f900004006003600f800bc
:10049000809fbe00829fbe00849fbe00869fbe00dc
:1004a0000000fa008060a900200020007a00070008
:1004b0000080fa004f03be004f02be004f01be0095
:1004c0004f00be003600f900004006003600f8007c
:1004d000809fbe00829fbe00849fbe00869fbe009c
:1004e0000000fa008080a900300020006a000700a8
:1004f0000080fa004f03be004f02be004f01be0055
:100500004f00be003600f900004006003600f8003b
:10051000809fbe00829fbe00849fbe00869fbe005b
:100520000000fa008600a900700020005a000700b1
:100530000080fa004f03be004f02be004f01be0014
:100540004f00be003600f900004006003600f800fb
:10055000809fbe00829fbe00849fbe00869fbe001b
:100560000000fa0085e0a900800020004a00070092
:100570000080fa004f03be004f02be004f01be00d4
:100580004f00be003600f900004006000040da00cf
:080590000000fe000000050060
:020000040000fa
:100598000000fa0000002300100888000621ef0080
:1005a8006821ef006a21ef000c21ef000e21ef0017
:1005b8007821ef007c21ef007e21ef008021ef0001
:1005c8008421ef008621ef00120020008007200020
:1005d800a109200013102000804978008149780083
:1005e8008249780012002000600420007105200074
:1005f80003102000804978008149780082497800fa
:100608000000000000088000610060000000e000b9
:10061800fcff3a00000000000108800000022000f2
:10062800008060000000e000fbff32000080fa005c
:10063800000006000000fa006626ef007a26ef00a8
:100648007001200010338800f0ff2e00b0338800be
:100658007426ef008826ef007226ef008626ef004a
:100668007426ef008826ef007226ef008626ef003a
:100678006826ef007c26ef00f00120005033880048
:10068800c0212e00f03388000080fa000000060028
:100698000200fa00000f78009e00780001408800f0
:1006a800ffff37000000fa00208020008007780054
:1006b800a0812000000188000080fa0000000600e8
:020000040000fa
:1006c8000208000020000000800000000008000070
:1006d8000200000082000000ffff00000000000090
:020000040000fa
:1006e8000000fa00d3ff070003000700a8ff070077
:1006f8000080fa00000006000000fa000080fa00fe
:10070800000006000000fa00f5ff0700ffff3700b1
:020000040000fa
:020000040001f9
:045e0000ffffff00a1
:020000040000fa
:020000040001f9
:045e2000ffffff0081
:020000040000fa
:020000040001f9
:045e300008ffff0068
:020000040000fa
:020000040001f9
:045e380063ffff0005
:020000040000fa
:020000040001f9
:045e40009fffff00c1
:020000040000fa
:020000040001f9
:045e4800ffffff0059
:020000040000fa
:020000040001f9
:045e5000dfffff0071
:020000040000fa
:020000040001f9
:045e58000000ff0047
:020000040000fa
:020000040001f9
:045e60000000ff003f
:020000040000fa
:020000040001f9
:045e68000000ff0037
:020000040000fa
:020000040001f9
:045e70000000ff002f
:020000040000fa
:020000040001f9
:045e7800ffffff0029
:020000040000fa
:020000040001f9
:045e8000ffffff0021
:00000001FF
